S0160000566E74436F6E74726F6C6C6572322E7372656380
S11300000C9446000C9466000C9466000C946600F4
S11300100C9466000C9466000C9466000C946600C4
S11300200C9466000C9466000C9466000C946600B4
S11300300C9428010C9466000C9466000C946600E1
S11300400C9466000C9466000C9466000C94660094
S11300500C9466000C9466000C9466000C94660084
S11300600C9466000C9466000C941E010C946600BB
S11300700C9466000C9466000C9466000C94660064
S11300800C9466000C9466000C94660011241FBE48
S1130090CFEFD0E1DEBFCDBF11E0A0E0B1E0EEECE8
S11300A0FCE000E00BBF02C007900D92A437B1073B
S11300B0D9F71BBE11E0A4E7B1E001C01D92A93835
S11300C0B107E1F70E94DB030C9465060C94000071
S11300D085E886B9089517B887B1806C87B980E838
S11300E086B980E486B983E086B980E286B932991C
S11300F0FECF329A089587B9369A3699FECF64B105
S113010075B180E090E00E94F8042CEB34E743E9F9
S11301105BE30E94AA0520E030E048EC52E40E9430
S1130120AA050E94C704862F972F089524E130E082
S113013040E050E087B9369A3699FECF64B175B184
S1130140460F571F21503040A9F7CA0164E170E0FF
S11301500E940D06862F972F089587B983EE86B9DE
S11301603299FECF329A84B195B1392F20E090E0D4
S1130170822B932B08958CE00E9438020E94EF0199
S11301800895CF93DF930E94740290937B01809330
S11301907A0164E670E00E940D06CB01CEE7D1E05F
S11301A0BE014AE050E00E943406CE010E941702CC
S11301B080E091E00E94170280917A0190917B0186
S11301C06AE070E00E940D06CB01BE014AE050E0F7
S11301D00E943406CE010E941702DF91CF91089548
S11301E0F8941FBC1EBC10928B00EAE8F0E0108269
S11301F08CE093E09BBD8ABD8CE39FE090938700E5
S1130200809386008EB588608EBD808188608083EF
S11302108EB581608EBD8EB584608EBD8081816017
S1130220808380818460808387B7806187BFEDE7A6
S1130230F0E0808180618083789408951F920F920A
S11302400FB60F9211240F900FBE0F901F901895A8
S11302501F920F920FB60F920BB60F9211242F9389
S11302603F938F939F93EF93FF93929A8091020110
S113027090910301992384F080E090E0E1EEF4E0B2
S11302803197F1F700C000000196209102013091EE
S113029003012817390794F7929889B38F3D09F41D
S11302A0929AFF91EF919F918F913F912F910F908F
S11302B00BBE0F900FBE0F901F901895AA9A0000C6
S11302C0AA980895CF93662311F0A89A01C0A8981C
S11302D0A998A39AA49AA59AA69AAE98AD98AC9810
S11302E0AB9888230CF4AE9AC82F86FDAD9AC5FD51
S11302F0AC9AC4FDAB9A0E945E01AE98AD98AC98DE
S1130300AB98C3FDAE9AC2FDAD9AC1FDAC9AC0FDD7
S1130310AB9A0E945E01AB9AAC9AAD9AAE9ACF9119
S11303200895882311F0A89A01C0A898A99AA398BF
S1130330A498A598A698AA9A00009B9902C080E068
S113034001C080E19C9980629D9980649E99806837
S1130350AA980000AA9A00009B9981609C998260E7
S11303609D9984609E998860AA98089580E00E946F
S113037091018823DCF300C000C080E00E94910159
S11303800895CF93C82F0E94B6018C2F60E00E947D
S11303906201CF910895CF93C82F0E94B6018C2F8C
S11303A061E00E946201CF910895662321F4805890
S11303B00E94C1010895613021F480540E94C1015A
S11303C00895623021F48C560E94C10108958C5224
S11303D00E94C10108950E94B60190E0089581E051
S11303E00E94C101089582E00E94C1010895CF9343
S11303F0C82F0E94B601CA30A1F4843148F0982F66
S11304009054943138F084518C3230F484E505C032
S113041080E403C084E101C080E080580E94C101EF
S113042004C08C2F61E00E946201CF910895CF93A4
S1130430DF93EC018881882331F021960E94F70133
S113044089918823D9F7DF91CF910895CF93DF93D2
S1130450EC01FC018491882341F021960E94F7016C
S1130460FE01219684918823C9F7DF91CF910895E5
S1130470CF93C82FA09AA19AA29AA39AA49AA59AB4
S1130480A69A8FE99FE00197F1F700C00000AC9AAB
S1130490AB9A0E945E0181EE94E00197F1F700C0EF
S11304A000000E945E0195E19A95F1F700000E9418
S11304B05E0185E18A95F1F70000AB980E945E0128
S11304C095E19A95F1F7000088E20E94C10188E065
S11304D00E94C1010E94EF0186E00E94C1018C2F9D
S11304E00E94C101CF9108950F931F93CF93DF937F
S11304F081E00E9496009C01B901882777FD8095D0
S1130500982F0E94FA042CEB34E743E95BE30E9442
S1130510AA0526E933E44BE05CE30E945F042AE980
S113052039E949EA51E40E94F603062F172FD82F20
S1130530C92F862F912FAD2FBC2FBC01CD0120E0F8
S113054030E0A9010E945B0488235CF0802F912F86
S1130550AD2FBC2FBC01CD010E94C704DC01CB012F
S113056002C080E090E0DF91CF911F910F91089538
S11305700E9468000E94F0000E94BB000E94F301E8
S113058084E091E00E9417028FEF81BB1ABA8BBB03
S113059082B98FEF9BE7A2E981509040A040E1F738
S11305A000C0000089B3873D39F481E090E0909366
S11305B07D0180937C0106C082E090E090937D01F0
S11305C080937C0181E0809388010895CF93DF9329
S11305D0809188018823D1F00E94EF010E94F301E9
S11305E080E191E00E94170280E061E00E94D50161
S11305F084E291E00E94170280E062E00E94D5014B
S113060088E391E00E9417021092880180E060E084
S11306100E94D501CBE4D1E0CE010E94170280E014
S113062061E00E94D501CE010E94170280E062E0E1
S11306300E94D501CE010E94170280E063E00E946F
S1130640D501CE010E94170280910201909103010D
S1130650CEE7D1E0BE014AE050E00E9434068EE0CD
S113066061E00E94D5018EE491E00E9417028EE0C1
S113067061E00E94D501CE010E9417028BE062E086
S11306800E94D50182E591E00E9417028BE062E0AE
S11306900E94D5010E94C100609177017091780198
S11306A080E00E94D50180917901882309F440C03B
S11306B087E591E00E94170280917701909178017B
S11306C08130910579F589B38F3B49F4809102011A
S11306D0909103010197909303018093020189B3E0
S11306E08F3749F480910201909103010196909310
S11306F003018093020180910201909103018536E8
S1130700910534F084E690E0909303018093020114
S11307108091020190910301992324F41092030122
S11307201092020189B38F3DE1F51092790139C02D
S11307308AE591E00E94170289B3873F49F48091CA
S113074077019091780101979093780180937701D4
S113075089B38F3E49F48091770190917801019695
S1130760909378018093770189B38F3D19F481E0E8
S1130770809379018091770190917801843091057B
S113078034F083E090E09093780180937701809136
S1130790770190917801992324F4109278011092B2
S11307A07701DF91CF9108950E94F3018DE591E0E7
S11307B00E94170208950E94B80280917C019091D2
S11307C07D018130910531F08230910529F40E9438
S11307D0D40302C00E94E6028FEF91EEA4E08150A0
S11307E09040A040E1F700C00000E7CF5058BB277D
S11307F0AA270ED075C166D130F06BD120F031F448
S11308009F3F11F41EF45BC10EF4E095E7FB51C168
S1130810E92F77D180F3BA17620773078407950726
S113082018F071F49EF58FC10EF4E0950B2EBA2FDB
S1130830A02D0B01B90190010C01CA01A0011124E2
S1130840FF27591B99F0593F50F4503E68F11A168E
S1130850F040A22F232F342F4427585FF3CF46951F
S113086037952795A795F0405395C9F77EF41F1641
S1130870BA0B620B730B840BBAF09150A1F0FF0F0B
S1130880BB1F661F771F881FC2F70EC0BA0F621FF7
S1130890731F841F48F4879577956795B795F795E7
S11308A09E3F08F0B3CF9395880F08F09927EE0F79
S11308B0979587950895D9D008F481E008950CD0D0
S11308C00FC107D140F0FED030F021F45F3F19F0A2
S11308D0F0C0511139C1F3C014D198F39923C9F36D
S11308E05523B1F3951B550BBB27AA276217730732
S11308F0840738F09F5F5F4F220F331F441FAA1FE6
S1130900A9F333D00E2E3AF0E0E830D091505040A5
S1130910E695001CCAF729D0FE2F27D0660F771F53
S1130920881FBB1F261737074807AB07B0E809F035
S1130930BB0B802DBF01FF2793585F4F2AF09E3FCA
S1130940510568F0B6C000C15F3FECF3983EDCF39C
S1130950869577956795B795F7959F5FC9F7880F43
S1130960911D9695879597F90895E1E0660F771F95
S1130970881FBB1F621773078407BA0720F0621B26
S1130980730B840BBA0BEE1F88F7E095089504D01F
S11309906894B111D9C00895BCD088F09F5790F0E5
S11309A0B92F9927B751A0F0D1F0660F771F881F90
S11309B0991F1AF0BA95C9F712C0B13081F0C3D0AB
S11309C0B1E00895C0C0672F782F8827B85F39F049
S11309D0B93FCCF3869577956795B395D9F73EF4EF
S11309E090958095709561957F4F8F4F9F4F089597
S11309F0E89409C097FB3EF49095809570956195B5
S1130A007F4F8F4F9F4F9923A9F0F92F96E9BB276A
S1130A109395F695879577956795B795F111F8CFE6
S1130A20FAF4BB0F11F460FF1BC06F5F7F4F8F4F51
S1130A309F4F16C0882311F096E911C0772321F047
S1130A409EE8872F762F05C0662371F096E8862FDF
S1130A5070E060E02AF09A95660F771F881FDAF736
S1130A60880F9695879597F90895990F0008550F63
S1130A70AA0BE0E8FEEF16161706E807F907C0F020
S1130A8012161306E407F50798F0621B730B840B28
S1130A90950B39F40A2661F0232B242B252B21F402
S1130AA008950A2609F4A140A6958FEF811D811DA2
S1130AB0089597F99F6780E870E060E008959FEFDC
S1130AC080EC089500240A941616170618060906E1
S1130AD0089500240A9412161306140605060895B0
S1130AE0092E0394000C11F4882352F0BB0F40F438
S1130AF0BF2B11F460FF04C06F5F7F4F8F4F9F4F78
S1130B00089557FD9058440F551F59F05F3F71F0F9
S1130B104795880F97FB991F61F09F3F79F0879560
S1130B200895121613061406551FF2CF4695F1DFE9
S1130B3008C0161617061806991FF1CF8695710579
S1130B40610508940895E894BB2766277727CB01AD
S1130B5097F908950BD0C4CFB5DF28F0BADF18F0A9
S1130B60952309F0A6CFABCF1124EECFCADFA0F3B3
S1130B70959FD1F3950F50E0551F629FF001729F2E
S1130B80BB27F00DB11D639FAA27F00DB11DAA1F4D
S1130B90649F6627B00DA11D661F829F2227B00D9A
S1130BA0A11D621F739FB00DA11D621F839FA00D25
S1130BB0611D221F749F3327A00D611D231F849F75
S1130BC0600D211D822F762F6A2F11249F575040CC
S1130BD08AF0E1F088234AF0EE0FFF1FBB1F661F67
S1130BE0771F881F91505040A9F79E3F510570F020
S1130BF060CFAACF5F3FECF3983EDCF38695779500
S1130C006795B795F795E7959F5FC1F7FE2B880F1A
S1130C10911D9695879597F9089597FB092E0726B8
S1130C200AD077FD04D00CD006D000201AF47095B9
S1130C3061957F4F0895F6F7909581959F4F08959C
S1130C40AA1BBB1B51E107C0AA1FBB1FA617B707EE
S1130C5010F0A61BB70B881F991F5A95A9F780950A
S1130C609095BC01CD010895FB019F01E8944230A9
S1130C70C4F04532B4F44A3029F497FB1EF490953D
S1130C8081959F4F642F77270E942006805D8A33C9
S1130C900CF0895D8193CB010097A1F716F45DE216
S1130CA051931082C9010C945506DC01FC01672F95
S1130CB071917723E1F7329704C07C916D9370832F
S1110CC06291AE17BF07C8F30895F894FFCFF2
S1130CCE2E00320023444544452072656164790048
S1130CDE2020464F522054455354494E47204F4EE0
S1130CEE4C59210020204368616E676520564E548E
S1130CFE202820202025290020205072657373752A
S1130D0E72652020202020426172002020002020C5
S1130D1E200020202020003C3E002D3E00202020DC
S1130D2E2020204D41494E2053435245454E20200C
S1070D3E202000006D
S9030000FC
