S0160000566E74436F6E74726F6C6C6572322E7372656380
S11300000C9446000C9466000C9466000C946600F4
S11300100C9466000C9466000C9466000C946600C4
S11300200C9466000C9466000C9466000C946600B4
S11300300C9424010C9466000C9466000C946600E5
S11300400C9466000C9466000C9466000C94660094
S11300500C9466000C9466000C9466000C94660084
S11300600C9466000C9466000C941A010C946600BF
S11300700C9466000C9466000C9466000C94660064
S11300800C9466000C9466000C94660011241FBE48
S1130090CFEFD0E1DEBFCDBF11E0A0E0B1E0EEE0F4
S11300A0F0E100E00BBF02C007900D92AC3AB1073B
S11300B0D9F71BBE11E0ACEAB1E001C01D92A33C2C
S11300C0B107E1F70E947B050C9405080C9400002D
S11300D085E886B9089517B887B1806C87B980E838
S11300E086B980E486B983E086B980E286B932991C
S11300F0FECF329A089587B9369A3699FECF64B105
S113010075B180E090E00E9498062CEB34E743E957
S11301105BE30E944A0720E030E048EC52E40E948E
S11301204A070E946706862F972F089524E130E03E
S113013040E050E087B9369A3699FECF64B175B184
S1130140460F571F21503040A9F7CA0164E170E0FF
S11301500E94AD07862F972F089587B983EE86B93D
S11301603299FECF329A84B195B1392F20E090E0D4
S1130170822B932B08958CE00E94BE020E9475028C
S113018008950F931F93CF93DF938C0164E670E07F
S11301900E94AD07CB01C8EBD1E0BE014AE050E0BC
S11301A00E94D407CE010E949D0280E091E00E944B
S11301B09D02C8016AE070E00E94AD07CB01BE0158
S11301C04AE050E00E94D407CE010E949D02DF91D4
S11301D0CF911F910F910895F8941FBC1EBC1092EB
S11301E08B00EAE8F0E0108284E690E09BBD8ABDD3
S11301F088E79EE190938700809386008EB588609F
S11302008EBD8081886080838EB581608EBD8EB501
S113021084608EBD808181608083808184608083DE
S113022087B7806187BFEDE7F0E0808180618083DC
S1130230789408951F920F920FB60F9211240F9085
S11302400FBE0F901F9018951F920F920FB60F922A
S11302500BB60F9211242F933F934F935F936F9399
S11302607F938F939F93AF93BF93EF93FF930E94DA
S1130270FF029093B5018093B4018091B4019091F1
S1130280B501813591055CF42091B4013091B5013B
S11302908091020190910301821793071CF40E943C
S11302A04D037FC00E94FA0221E0823292071CF4BF
S11302B00E944D0376C00E94FA0221E0853F920716
S11302C054F08091B4019091B501803591051CF4EE
S11302D00E94430366C00E94FA028D3D9105B4F169
S11302E08091B4019091B501883291058CF04091D0
S11302F00201509103012091B4013091B501CA016A
S113030099230CF4019695958795821793071CF40D
S11303100E94430346C08091B4019091B501813598
S113032091058CF440910201509103012091B40194
S11303303091B501CA0199230CF4019695958795DE
S1130340821793071CF40E944D032BC02091AD012A
S11303503091AE018091B4019091B501281739070D
S113036044F48091B4019091B5019093AE018093CF
S1130370AD018091AF019091B0018932910544F0B3
S11303801092AE011092AD011092B0011092AF0123
S11303908091AF019091B00101969093B001809348
S11303A0AF01FF91EF91BF91AF919F918F917F9199
S11303B06F915F914F913F912F910F900BBE0F90D2
S11303C00FBE0F901F901895AA9A0000AA9808953E
S11303D0CF93662311F0A89A01C0A898A998A39A6C
S11303E0A49AA59AA69AAE98AD98AC98AB9888238F
S11303F00CF4AE9AC82F86FDAD9AC5FDAC9AC4FD27
S1130400AB9A0E94E401AE98AD98AC98AB98C3FD4A
S1130410AE9AC2FDAD9AC1FDAC9AC0FDAB9A0E94E2
S1130420E401AB9AAC9AAD9AAE9ACF910895882321
S113043011F0A89A01C0A898A99AA398A498A5987D
S1130440A698AA9A00009B9902C080E001C080E1AE
S11304509C9980629D9980649E998068AA98000006
S1130460AA9A00009B9981609C9982609D998460FE
S11304709E998860AA98089580E00E9417028823B4
S1130480DCF300C000C080E00E9417020895CF93FF
S1130490C82F0E943C028C2F60E00E94E801CF919B
S11304A00895CF93C82F0E943C028C2F61E00E94D4
S11304B0E801CF910895662321F480580E944702F1
S11304C00895613021F480540E94470208956230F7
S11304D021F48C560E94470208958C520E944702D0
S11304E008950E943C0290E0089581E00E94470232
S11304F0089582E00E9447020895CF93C82F0E9476
S11305003C02CA30A1F4843148F0982F90549431BD
S113051038F084518C3230F484E505C080E403C0A3
S113052084E101C080E080580E94470204C08C2FFF
S113053061E00E94E801CF910895CF93DF93EC012D
S11305408881882331F021960E947D028991882335
S1130550D9F7DF91CF910895CF93DF93EC01FC019C
S11305608491882341F021960E947D02FE01219608
S113057084918823C9F7DF91CF910895CF93C82F31
S1130580A09AA19AA29AA39AA49AA59AA69A8FE944
S11305909FE00197F1F700C00000AC9AAB9A0E946B
S11305A0E40181EE94E00197F1F700C000000E949D
S11305B0E40195E19A95F1F700000E94E40185E1D8
S11305C08A95F1F70000AB980E94E40195E19A95B1
S11305D0F1F7000088E20E94470288E00E94470287
S11305E00E94750286E00E9447028C2F0E944702F7
S11305F0CF91089580E090E00E94960008950F93B3
S11306001F93CF93DF9381E00E9496009C01B90170
S1130610882777FD8095982F0E949A062CEB34E763
S113062043E95BE30E944A0726E933E44BE05CE3D9
S11306300E94FF052AE939E949EA51E40E94960536
S1130640062F172FD82FC92F862F912FAD2FBC2FF0
S1130650BC01CD0120E030E0A9010E94FB05882304
S11306605CF0802F912FAD2FBC2FBC01CD010E94D7
S11306706706DC01CB0102C080E090E0DF91CF91FE
S11306801F910F910895929A939A8BE49DE101979B
S1130690F1F700C00000939808959298939A8BE420
S11306A09DE10197F1F700C00000939808950E941E
S11306B068000E94BB000E94790286E091E00E94DB
S11306C09D0280E061E00E945B0282E191E00E9471
S11306D09D0280E062E00E945B028CE191E00E9456
S11306E09D028FEF81BB1ABA8BBB82B98FEF9BE758
S11306F0A2E981509040A040E1F700C0000089B316
S1130700873D39F481E090E09093B7018093B6017E
S113071006C082E090E09093B7018093B60181E037
S11307208093C2010E94EC000895CF93DF938091DF
S1130730C201882311F10E9475020E9479028CE2A1
S113074091E00E949D0280E061E00E945B0280E4EF
S113075091E00E949D0280E062E00E945B0284E5D9
S113076091E00E949D0280E063E00E945B0287E6C4
S113077091E00E949D021092C20180E060E00E941C
S11307805B02C7E7D1E0CE010E949D0280E061E0F8
S11307900E945B02CE010E949D0280E062E00E9402
S11307A05B02CE010E949D0280E063E00E945B0236
S11307B0CE010E949D028091040190910501C8EB35
S11307C0D1E0BE014AE050E00E94D4078EE061E02F
S11307D00E945B028AE791E00E949D028EE061E044
S11307E00E945B02CE010E949D020E94FA02BE0199
S11307F04AE050E00E94D40780E163E00E945B027B
S11308008EE791E00E949D0280E163E00E945B021A
S1130810CE010E949D028BE062E00E945B0284E8AC
S113082091E00E949D028BE062E00E945B020E94C4
S1130830FF020E94C1006091B1017091B20180E099
S11308400E945B028091B301882309F441C089E8C6
S113085091E00E949D028091B1019091B20181309A
S1130860910579F589B38F3B49F480910401909106
S113087005010197909305018093040189B38F3793
S113088049F480910401909105010196909305012A
S113089080930401809104019091050185369105AE
S11308A034F084E690E090930501809304018091F4
S11308B0040190910501992324F4109205011092EA
S11308C0040189B38F3D09F049C01092B30146C0B9
S11308D08CE891E00E949D0289B3873F49F480919E
S11308E0B1019091B20101979093B2018093B1014B
S11308F089B38F3E49F48091B1019091B201019680
S11309009093B2018093B10189B38F3D19F481E0D2
S11309108093B3018091B1019091B201843091052B
S113092034F083E090E09093B2018093B101809120
S1130930B1019091B201992324F41092B201109262
S1130940B10189B38F3719F4929A939A07C089B386
S11309508F3B19F49298939A01C09398DF91CF91A9
S113096008950F931F93CF93DF938091C20188233F
S113097011F10E9475020E9479028FE891E00E94B1
S11309809D0280E061E00E945B0286E991E00E94A2
S11309909D0280E062E00E945B0284E591E00E9497
S11309A09D0280E063E00E945B0287E691E00E9482
S11309B09D021092C20180E060E00E945B02C7E7E2
S11309C0D1E0CE010E949D0280E061E00E945B02C2
S11309D0CE010E949D0280E062E00E945B02CE0193
S11309E00E949D0280E063E00E945B02CE010E94AF
S11309F09D028FE061E00E945B020EE711E0C801F6
S1130A000E949D028FE061E00E945B0280910201DE
S1130A10909103010E94C1000E94FA02C8EBD1E048
S1130A20BE014AE050E00E94D40780E163E00E94E6
S1130A305B02C8010E949D0280E163E00E945B02A8
S1130A40CE010E949D028BE062E00E945B02C4E83A
S1130A50D1E0CE010E949D028BE062E00E945B0225
S1130A608091B4019091B5010E94C10087E060E0DB
S1130A700E945B02CE010E949D0287E060E00E941A
S1130A805B028091AD019091AE010E94C10089B3D7
S1130A908F3B49F480910201909103010A9790934E
S1130AA003018093020189B38F3749F480910201D5
S1130AB0909103010A96909303018093020180911F
S1130AC00201909103018B35910534F08AE590E0A1
S1130AD0909303018093020180910201909103019C
S1130AE0992324F41092030110920201DF91CF9113
S1130AF01F910F9108950E9457038091B601909120
S1130B00B7018130910531F08230910529F40E94BA
S1130B10B10402C00E9495038FEF91EEA4E08150CE
S1130B209040A040E1F700C00000E7CF5058BB2739
S1130B30AA270ED075C166D130F06BD120F031F404
S1130B409F3F11F41EF45BC10EF4E095E7FB51C125
S1130B50E92F77D180F3BA176207730784079507E3
S1130B6018F071F49EF58FC10EF4E0950B2EBA2F98
S1130B70A02D0B01B90190010C01CA01A00111249F
S1130B80FF27591B99F0593F50F4503E68F11A164B
S1130B90F040A22F232F342F4427585FF3CF4695DC
S1130BA037952795A795F0405395C9F77EF41F16FE
S1130BB0BA0B620B730B840BBAF09150A1F0FF0FC8
S1130BC0BB1F661F771F881FC2F70EC0BA0F621FB4
S1130BD0731F841F48F4879577956795B795F795A4
S1130BE09E3F08F0B3CF9395880F08F09927EE0F36
S1130BF0979587950895D9D008F481E008950CD08D
S1130C000FC107D140F0FED030F021F45F3F19F05E
S1130C10F0C0511139C1F3C014D198F39923C9F329
S1130C205523B1F3951B550BBB27AA2762177307EE
S1130C30840738F09F5F5F4F220F331F441FAA1FA2
S1130C40A9F333D00E2E3AF0E0E830D09150504062
S1130C50E695001CCAF729D0FE2F27D0660F771F10
S1130C60881FBB1F261737074807AB07B0E809F0F2
S1130C70BB0B802DBF01FF2793585F4F2AF09E3F87
S1130C80510568F0B6C000C15F3FECF3983EDCF359
S1130C90869577956795B795F7959F5FC9F7880F00
S1130CA0911D9695879597F90895E1E0660F771F52
S1130CB0881FBB1F621773078407BA0720F0621BE3
S1130CC0730B840BBA0BEE1F88F7E095089504D0DC
S1130CD06894B111D9C00895BCD088F09F5790F0A2
S1130CE0B92F9927B751A0F0D1F0660F771F881F4D
S1130CF0991F1AF0BA95C9F712C0B13081F0C3D068
S1130D00B1E00895C0C0672F782F8827B85F39F005
S1130D10B93FCCF3869577956795B395D9F73EF4AB
S1130D2090958095709561957F4F8F4F9F4F089553
S1130D30E89409C097FB3EF4909580957095619571
S1130D407F4F8F4F9F4F9923A9F0F92F96E9BB2727
S1130D509395F695879577956795B795F111F8CFA3
S1130D60FAF4BB0F11F460FF1BC06F5F7F4F8F4F0E
S1130D709F4F16C0882311F096E911C0772321F004
S1130D809EE8872F762F05C0662371F096E8862F9C
S1130D9070E060E02AF09A95660F771F881FDAF7F3
S1130DA0880F9695879597F90895990F0008550F20
S1130DB0AA0BE0E8FEEF16161706E807F907C0F0DD
S1130DC012161306E407F50798F0621B730B840BE5
S1130DD0950B39F40A2661F0232B242B252B21F4BF
S1130DE008950A2609F4A140A6958FEF811D811D5F
S1130DF0089597F99F6780E870E060E008959FEF99
S1130E0080EC089500240A9416161706180609069D
S1130E10089500240A94121613061406050608956C
S1130E20092E0394000C11F4882352F0BB0F40F4F4
S1130E30BF2B11F460FF04C06F5F7F4F8F4F9F4F34
S1130E40089557FD9058440F551F59F05F3F71F0B6
S1130E504795880F97FB991F61F09F3F79F087951D
S1130E600895121613061406551FF2CF4695F1DFA6
S1130E7008C0161617061806991FF1CF8695710536
S1130E80610508940895E894BB2766277727CB016A
S1130E9097F908950BD0C4CFB5DF28F0BADF18F066
S1130EA0952309F0A6CFABCF1124EECFCADFA0F370
S1130EB0959FD1F3950F50E0551F629FF001729FEB
S1130EC0BB27F00DB11D639FAA27F00DB11DAA1F0A
S1130ED0649F6627B00DA11D661F829F2227B00D57
S1130EE0A11D621F739FB00DA11D621F839FA00DE2
S1130EF0611D221F749F3327A00D611D231F849F32
S1130F00600D211D822F762F6A2F11249F57504088
S1130F108AF0E1F088234AF0EE0FFF1FBB1F661F23
S1130F20771F881F91505040A9F79E3F510570F0DC
S1130F3060CFAACF5F3FECF3983EDCF386957795BC
S1130F406795B795F795E7959F5FC1F7FE2B880FD7
S1130F50911D9695879597F9089597FB092E072675
S1130F600AD077FD04D00CD006D000201AF4709576
S1130F7061957F4F0895F6F7909581959F4F089559
S1130F80AA1BBB1B51E107C0AA1FBB1FA617B707AB
S1130F9010F0A61BB70B881F991F5A95A9F78095C7
S1130FA09095BC01CD010895FB019F01E894423066
S1130FB0C4F04532B4F44A3029F497FB1EF49095FA
S1130FC081959F4F642F77270E94C007805D8A33E5
S1130FD00CF0895D8193CB010097A1F716F45DE2D3
S1130FE051931082C9010C94F507DC01FC01672FB1
S1130FF071917723E1F7329704C07C916D937083EC
S11110006291AE17BF07C8F30895F894FFCFAE
S113100E2E00460032002344454445207265616437
S113101E790056657273696F6E3A20005620312E30
S113102E3030322031362F31302F32002020464FCF
S113103E522054455354494E47204F4E4C5921008B
S113104E20204368616E676520564E542028202068
S113105E2025290020205072657373757265202037
S113106E2020204261720020205468726F74746CC8
S113107E6520504F532000202000202020002020E7
S113108E2020200020202020003C3E002D3E002069
S113109E205045414B0020204D61782070726573BD
S10F10AE737572652020202020200000B3
S9030000FC
