S01A000041454C5F564E545F436F6E74726F6C6C65722E737265635E
S11300000C9446000C9466000C9466000C946600F4
S11300100C9466000C9466000C9466000C946600C4
S11300200C9466000C9466000C9466000C946600B4
S11300300C9466000C9466000C9466000C946600A4
S11300400C9466000C9466000C9466000C94660094
S11300500C9466000C9466000C9466000C94660084
S11300600C9466000C9466000C9466000C94660074
S11300700C9466000C9466000C9466000C94660064
S11300800C9466000C9466000C94660011241FBE48
S1130090CFEFD0E1DEBFCDBF18E0A0E0B1E0EAE8E9
S11300A0F4E000E00BBF02C007900D92A033B1074B
S11300B0D9F71BBE18E0A0E3B8E001C01D92A0333D
S11300C0B107E1F70E94BB000C9443020C940000BA
S11300D085E886B9089517B887B1806C87B980E838
S11300E086B980E486B983E086B980E286B932991C
S11300F0FECF329A089587B9369A3699FECF64B105
S113010075B180E090E00E942B012CEB34E743E9C9
S11301105BE30E94910120E030E048EC52E40E944D
S113012091010E94FA00862F972F089524E130E070
S113013040E050E087B9369A3699FECF64B175B184
S1130140460F571F21503040A9F7CA0164E170E0FF
S11301500E941C02862F972F089587B983EE86B9D3
S11301603299FECF329A84B195B1392F20E090E0D4
S1130170822B932B0895CF93DF9300D0CDB7DEB7B6
S11301801A8219828AE090E060ED77E00E94CB0049
S11301909A838983F5CFFC019B01CB0164E670E06F
S11301A00E941C028233910514F02C593F4FC9015F
S11301B064E670E00E941C029B0129503040CF018C
S11301C065E070E00E941C02C901880F991F880F26
S11301D0991FFC01EE0FFF1FEE0FFF1F8E0F9F1FD5
S11301E0680F791FFB01EE0FFF1FE050FF4F808166
S11301F09181089504D06894B1118DC0089570D090
S113020088F09F5790F0B92F9927B751A0F0D1F0FB
S1130210660F771F881F991F1AF0BA95C9F712C085
S1130220B13081F077D0B1E0089574C0672F782F92
S11302308827B85F39F0B93FCCF3869577956795F1
S1130240B395D9F73EF490958095709561957F4F5D
S11302508F4F9F4F0895E89409C097FB3EF4909503
S11302608095709561957F4F8F4F9F4F9923A9F08B
S1130270F92F96E9BB279395F6958795779567951A
S1130280B795F111F8CFFAF4BB0F11F460FF1BC05E
S11302906F5F7F4F8F4F9F4F16C0882311F096E9F1
S11302A011C0772321F09EE8872F762F05C066239F
S11302B071F096E8862F70E060E02AF09A95660F58
S11302C0771F881FDAF7880F9695879597F9089511
S11302D057FD9058440F551F59F05F3F71F04795F3
S11302E0880F97FB991F61F09F3F79F087950895D8
S11302F0121613061406551FF2CF4695F1DF08C0F7
S1130300161617061806991FF1CF86957105610513
S113031008940895E894BB2766277727CB0197F9BB
S113032008950BD078C069D028F06ED018F09523CA
S113033009F05AC05FC01124EECFCADFA0F3959F25
S1130340D1F3950F50E0551F629FF001729FBB27B8
S1130350F00DB11D639FAA27F00DB11DAA1F649F64
S11303606627B00DA11D661F829F2227B00DA11D17
S1130370621F739FB00DA11D621F839FA00D611D9D
S1130380221F749F3327A00D611D231F849F600DBE
S1130390211D822F762F6A2F11249F5750408AF0F7
S11303A0E1F088234AF0EE0FFF1FBB1F661F771F83
S11303B0881F91505040A9F79E3F510570F014C01A
S11303C0AACF5F3FECF3983EDCF38695779567956B
S11303D0B795F795E7959F5FC1F7FE2B880F911DA1
S11303E09695879597F9089597F99F6780E870E047
S11303F060E008959FEF80EC089500240A94161697
S1130400170618060906089500240A9412161306FE
S1130410140605060895092E0394000C11F488238C
S113042052F0BB0F40F4BF2B11F460FF04C06F5FA8
S11304307F4F8F4F9F4F089597FB092E07260AD0B1
S113044077FD04D00CD006D000201AF47095619585
S11304507F4F0895F6F7909581959F4F0895AA1BB5
S1130460BB1B51E107C0AA1FBB1FA617B70710F09B
S1130470A61BB70B881F991F5A95A9F780959095CD
S10D0480BC01CD010895F894FFCFEC
S113048A6400C8002C019001F4015802BC02200344
S113049A8403E8034C04B00414057805DC0540061B
S11304AAA40608076C07D0076400C8002C01900151
S11304BAF4015802BC0220038403E8034C04B00488
S11304CA14057805DC054006A40608076C07D0075E
S11304DA6400C8002C019001F4015802BC022003F4
S11304EA8403E8034C04B00414057805DC054006CB
S11304FAA40608076C07D0076400C8002C01900101
S113050AF4015802BC0220038403E8034C04B00437
S113051A14057805DC054006A40608076C07D0070D
S113052A6400C8002C019001F4015802BC022003A3
S113053A8403E8034C04B00414057805DC0540067A
S113054AA40608076C07D0076400C8002C019001B0
S113055AF4015802BC0220038403E8034C04B004E7
S113056A14057805DC054006A40608076C07D007BD
S113057A6400C8002C019001F4015802BC02200353
S113058A8403E8034C04B00414057805DC0540062A
S113059AA40608076C07D0076400C8002C01900160
S11305AAF4015802BC0220038403E8034C04B00497
S11305BA14057805DC054006A40608076C07D0076D
S11305CA6400C8002C019001F4015802BC02200303
S11305DA8403E8034C04B00414057805DC054006DA
S11305EAA40608076C07D0076400C8002C01900110
S11305FAF4015802BC0220038403E8034C04B00447
S113060A14057805DC054006A40608076C07D0071C
S113061A6400C8002C019001F4015802BC022003B2
S113062A8403E8034C04B00414057805DC05400689
S113063AA40608076C07D0076400C80031019001BA
S113064AF4015802BC0220038403E8034C04B004F6
S113065A14057805DC054006A40608076C07D007CC
S113066A6400C8002C019001F4015802BC02200362
S113067A8403E8034C04B00414057805DC05400639
S113068AA40608076C07D0076400C8002C0190016F
S113069AF4015802BC0220038403E8034C04B004A6
S11306AA14057805DC054006A40608076C07D0077C
S11306BA6400C8002C019001F4015802BC02200312
S11306CA8403E8034C04B00414057805DC054006E9
S11306DAA40608076C07D0076400C8002C0190011F
S11306EAF4015802BC0220038403E8034C04B00456
S11306FA14057805DC054006A40608076C07D0072C
S113070A6400C8002C019001F4015802BC022003C1
S113071A8403E8034C04B00414057805DC05400698
S113072AA40608076C07D0076400C8002C019001CE
S113073AF4015802BC0220038403E8034C04B00405
S113074A14057805DC054006A40608076C07D007DB
S113075A6400C8002C019001F4015802BC02200371
S113076A8403E8034C04B00414057805DC05400648
S113077AA40608076C07D0076400C8002C0190017E
S113078AF4015802BC0220038403E8034C04B004B5
S113079A14057805DC054006A40608076C07D0078B
S11307AA6400C8002C019001F4015802BC02200321
S11307BA8403E8034C04B00414057805DC054006F8
S11307CAA40608076C07D0076400C8002C0190012E
S11307DAF4015802BC0220038403E8034C04B00465
S11307EA14057805DC054006A40608076C07D0073B
S11307FA6400C8002C019001F4015802BC022003D1
S113080A8403E8034C04B00414057805DC054006A7
S113081AA40608076C07D0076400C8002C019001DD
S113082AF4015802BC0220038403E8034C04B00414
S113083A14057805DC054006A40608076C07D007EA
S113084A6400C8002C019001F4015802BC02200380
S113085A8403E8034C04B00414057805DC05400657
S113086AA40608076C07D0076400C8002C0190018D
S113087AF4015802BC0220038403E8034C04B004C4
S113088A14057805DC054006A40608076C07D0079A
S113089A6400C8002C019001F4015802BC02200330
S11308AA8403E8034C04B00414057805DC05400607
S11308BAA40608076C07D0076400C8002C0190013D
S11308CAF4015802BC0220038403E8034C04B00474
S11308DA14057805DC054006A40608076C07D0074A
S11308EA6400C8002C019001F4015802BC022003E0
S11308FA8403E8034C04B00414057805DC054006B7
S113090AA40608076C07D0076400C8002C019001EC
S113091AF4015802BC0220038403E8034C04B00423
S113092A14057805DC054006A40608076C07D007F9
S113093A6400C8002C019001F4015802BC0220038F
S113094A8403E8034C04B00414057805DC05400666
S113095AA40608076C07D0076400C8002C0190019C
S113096AF4015802BC0220038403E8034C04B004D3
S113097A14057805DC054006A40608076C07D007A9
S113098A6400C8002C019001F4015802BC0220033F
S113099A8403E8034C04B00414057805DC05400616
S11309AAA40608076C07D0076400C8002C0190014C
S11309BAF4015802BC0220038403E8034C04B00483
S11309CA14057805DC054006A40608076C07D00759
S11309DA6400C8002C019001F4015802BC022003EF
S11309EA8403E8034C04B00414057805DC054006C6
S11309FAA40608076C07D0076400C8002C019001FC
S1130A0AF4015802BC0220038403E8034C04B00432
S1130A1A14057805DC054006A40608076C07D00708
S1130A2A6400C8002C019001F4015802BC0220039E
S1130A3A8403E8034C04B00414057805DC05400675
S1130A4AA40608076C07D0076400C8002C019001AB
S1130A5AF4015802BC0220038403E8034C04B004E2
S1130A6A14057805DC054006A40608076C07D007B8
S1130A7A6400C8002C019001F4015802BC0220034E
S1130A8A8403E8034C04B00414057805DC05400625
S1130A9AA40608076C07D0076400C8002C0190015B
S1130AAAF4015802BC0220038403E8034C04B00492
S1130ABA14057805DC054006A40608076C07D00768
S1130ACA6400C8002C019001F4015802BC022003FE
S1130ADA8403E8034C04B00414057805DC054006D5
S1130AEAA40608076C07D0076400C8002C0190010B
S1130AFAF4015802BC0220038403E8034C04B00442
S1130B0A14057805DC054006A40608076C07D00717
S1130B1A6400C8002C019001F4015802BC022003AD
S1130B2A8403E8034C04B00414057805DC05400684
S1130B3AA40608076C07D0076400C8002C019001BA
S1130B4AF4015802BC0220038403E8034C04B004F1
S1130B5A14057805DC054006A40608076C07D007C7
S1130B6A6400C8002C019001F4015802BC0220035D
S1130B7A8403E8034C04B00414057805DC05400634
S1130B8AA40608076C07D0076400C8002C0190016A
S1130B9AF4015802BC0220038403E8034C04B004A1
S1130BAA14057805DC054006A40608076C07D00777
S9030000FC
