:1000000045C0000060C000005EC000005CC0000091
:100010005AC0000058C0000056C0000054C0000084
:1000200052C0000050C000004EC000004CC0000094
:1000300034C1000048C0000046C0000044C00000B9
:1000400042C0000040C000003EC000003CC00000B4
:100050003AC0000038C0000036C0000034C00000C4
:1000600032C0000030C000002EC000002CC00000D4
:100070002AC0000028C0000026C0000024C00000E4
:1000800022C0000020C000001EC0000011241FBEBE
:10009000CFEFD0E1DEBFCDBF11E0A0E0B1E0E4EEF4
:1000A000F3E000E00BBF02C007900D92A431B1074E
:1000B000D9F721E0A4E1B1E001C01D92A631B20759
:1000C000E1F738D18DC19CCF8EE0A0D073C0AA9A41
:1000D0000000AA980895CF93DF931F92CDB7DEB7A3
:1000E000662311F0A89A01C0A898A998A39AA49A87
:1000F000A59AA69AAE98AD98AC98AB9887FDAE9AA3
:1001000086FDAD9A85FDAC9A84FDAB9A8983DFDFCD
:10011000AE98AD98AC98AB98898183FDAE9A82FD7C
:10012000AD9A81FDAC9A80FDAB9AD1DFAB9AAC9AC7
:10013000AD9AAE9A0F90DF91CF910895A898A99AA1
:10014000A398A498A598A698AA9A00009B9902C083
:1001500080E001C080E19C9980629D9980649E99B5
:100160008068AA980000AA9A00009B9981609C99D7
:1001700082609D9984609E998860AA980895DEDFC8
:1001800087FDFDCF00C000C0D9CFCF93C82FF7DFC8
:1001900060E08C2FCF919FCF611102C0805809C0C1
:1001A000613011F4805405C0623011F48C5601C0E6
:1001B0008C52EBCF81E0E9CF82E0E7CFCF93C82F1D
:1001C000DEDF982FCA3099F4843148F080EC890F33
:1001D000843138F094519C3230F484E505C080E4D9
:1001E00003C084E101C080E08058CF91CECF61E0B0
:1001F0008C2FCF9170CFCF93DF93EC01899188231F
:1002000011F0DCDFFBCFDF91CF910895CF93C82FA2
:10021000A09AA19AA29AA39AA49AA59AA69A8FE9BB
:100220009FE00197F1F700C00000AC9AAB9A4FDF56
:1002300081EE94E00197F1F700C0000048DF95E1FE
:100240009A95F1F7000043DF85E18A95F1F7000008
:10025000AB983DDF95E19A95F1F7000088E295DFD4
:1002600088E093DFA7DF86E090DF8C2FCF918DCFE2
:10027000F8941FBC1EBC88EC90E09BBD8ABD8EB577
:1002800088608EBD8EB581608EBD8EB584608EBD5A
:1002900087B7806187BF789408951F920F920FB639
:1002A0000F9211240BB60F922F933F934F935F93AE
:1002B0006F937F938F939F93AF93BF93EF93FF932E
:1002C000CF93DF93CDB7DEB72597DEBFCDBF62E01A
:1002D00082E062DF4AE0BE016F5F7F4F80911401D0
:1002E000909115014AD0CE01019685DF80911401CD
:1002F00090911501019690931501809314015CDF94
:100300000F900F900F900F900F90DF91CF91FF9172
:10031000EF91BF91AF919F918F917F916F915F917D
:100320004F913F912F910F900BBE0F900FBE0F90EA
:100330001F901895C9DE2FE788E391E02150804097
:100340009040E1F700C0000093DF2FE788E391E0E1
:10035000215080409040E1F700C000008FEF8ABB41
:10036000C89B04C029DF80E091E045DFCF9BF8CF38
:1003700023DF8AE091E03FDFF3CFBB274A3031F43F
:10038000992322F4BDE2909581959F4F01C0BB2730
:10039000FB015527AA27880F991FAA1FA41710F041
:1003A000A41B83955051B9F7A05DAA3308F0A95D4D
:1003B000A193009779F7B111B1931192CB0100C0CD
:1003C000DC01FC01672F71917723E1F7329704C0BC
:1003D0007C916D9370836291AE17BF07C8F3089547
:0403E000F894FFCFBF
:1003E4007069726D617320494600616E7472617345
:0403F4002049460056
:00000001FF
