:100000000C9446000C9466000C9466000C946600F8
:100010000C9466000C9466000C9466000C946600C8
:100020000C9466000C9466000C9466000C946600B8
:100030000C9466000C9466000C9466000C946600A8
:100040000C9466000C9466000C9466000C94660098
:100050000C9466000C9466000C9466000C94660088
:100060000C9466000C9466000C9466000C94660078
:100070000C9466000C9466000C9466000C94660068
:100080000C9466000C9466000C94660011241FBE4C
:10009000CFEFD0E1DEBFCDBF11E0A0E0B1E0EEEAEE
:1000A000F1E000E00BBF02C007900D92A030B10755
:1000B000D9F71BBE11E0A0E0B1E001C01D92A03055
:1000C000B107E1F70E9468000C94D5000C94000081
:1000D0000E94AB0080E090E008958130910519F412
:1000E0008FEA82BB08958230910519F485E482BBC2
:1000F00008958330910519F487E082BB0895843018
:10010000910519F486EA82BB08958530910519F4AA
:1001100086E182BB08958630910519F484E182BBA3
:1001200008958730910519F48FE282BB08958830D5
:10013000910519F484E082BB08958930910519F482
:1001400086E082BB0895009719F48CE082BB089585
:1001500084E182BB08958FEF81BB84BB82BB85BBEA
:1001600087EF85BB82E090E00E946D0089EF90E010
:100170000197F1F700C000008FE785BB89EF90E0A1
:100180000197F1F700C000008BEF85BB89EF90E08D
:100190000197F1F700C000008FEB85BB89EF90E07D
:0E01A0000197F1F700C000000895F894FFCF1A
:00000001FF
