S01900004D6F6E69746F72696E67426C6F636B56322E7372656372
S11300000C9446000C9466000C9466000C946600F4
S11300100C9466000C9466000C9466000C946600C4
S11300200C9466000C9466000C9466000C946600B4
S11300300C94EB050C9466000C9466000C9466001A
S11300400C9466000C9466000C9466000C94660094
S11300500C9466000C9466000C9466000C94660084
S11300600C9466000C9466000C94A4050C94660031
S11300700C9466000C9466000C9466000C94660064
S11300800C9466000C9466000C94660011241FBE48
S1130090CFEFD0E1DEBFCDBF11E0A0E0B1E0ECE6F0
S11300A0FFE000E00BBF02C007900D92A030B10743
S11300B0D9F71BBE11E0A0E0B1E001C01D92A93147
S11300C0B107E1F70E9402060C94B4070C940000F7
S11300D08FEF81BB12BA85E886B9089587B9369A3D
S11300E03699FECF84B195B108958430910581F19C
S11300F08530910584F48130910509F182309105B0
S11301001CF40097B9F1089582309105D9F0833039
S1130110910591F51AC08730910519F18830910540
S11301203CF485309105B9F08630910529F516C067
S113013088309105C9F089309105F1F418C08FEA2F
S113014082BB089585E482BB089587E082BB08954D
S113015086EA82BB089586E182BB089584E182BB6E
S113016008958FE282BB089584E082BB089586E0FF
S113017082BB08958CE082BB08958430910581F19F
S11301808530910584F48130910509F1823091051F
S11301901CF40097B9F1089582309105D9F08330A9
S11301A0910591F51AC08730910519F188309105B0
S11301B03CF485309105B9F08630910529F516C0D7
S11301C088309105C9F089309105F1F418C082E4B2
S11301D08BBB08958DE68BBB08958BE68BBB08958E
S11301E083EC8BBB08958BEA8BBB08958FEA8BBBA2
S11301F008958AE48BBB08958FEE8BBB08958BEE34
S11302008BBB08958EEE8BBB08950F931F93CF93F2
S1130210209100012223F9F020911301309114015F
S113022021353105C4F08FEF82BB80911301909189
S11302301401893291052CF01092140110921301CB
S11302406AC0809113019091140101969093140156
S11302508093130160C099237CF427EF25BB22BB54
S1130260E1EBFCE03197F1F700C000002FEF22BB77
S1130270909581959F4F16C027EF25BB68EE73E0DC
S11302800E948D07082FC92FCB010E94750081EBB6
S11302909CE00197F1F700C000008FEF82BB85BBA3
S11302A0802F9C2F64E670E00E948D078C01CB01A7
S11302B00E9475008FE785BBE1EBFCE03197F1F715
S11302C000C00000CFEFC2BBC8016AE070E00E942A
S11302D08D078C01CB010E9475008BEF85BB81EBF0
S11302E09CE00197F1F700C00000C2BBC8010E9466
S11302F075008FEB85BBE1EBFCE03197F1F700C0B3
S11303000000C2BB80911301909114010196909357
S1130310140180931301CF911F910F9108950F93AE
S11303201F93CF93209100012223F9F02091130110
S11303303091140121353105C4F08FEF82BB8091D7
S1130340130190911401893291052CF0109214013B
S1130350109213016BC080911301909114010196C6
S1130360909314018093130161C0992384F42DEFB9
S113037025BB27EF22BBE1EBFCE03197F1F700C08E
S113038000002FEF22BB909581959F4F15C02DEF54
S113039025BB68EE73E00E948D07082FC92FCB019F
S11303A00E94750081EB9CE00197F1F700C000000A
S11303B08FEF82BB802F9C2F64E670E00E948D0734
S11303C08C01CB010E9475008FED85BBE1EBFCE055
S11303D03197F1F700C00000CFEFC2BBC8016AE05B
S11303E070E00E948D078C01CB010E9475008EEF96
S11303F085BB81EB9CE00197F1F700C00000C2BB14
S1130400C8010E9475008FEE85BBE1EBFCE03197DB
S1130410F1F700C00000C2BBC5BB809113019091ED
S1130420140101969093140180931301CF911F91AD
S11304300F910895CF93DF93209100012223F9F0C7
S1130440209113013091140121353105C4F08FEF4F
S113045082BB8091130190911401893291052CF093
S1130460109214011092130143C0809113019091D2
S113047014010196909314018093130139C09923B8
S11304807CF420E828BB21E02BBBE1EBFCE03197B6
S1130490F1F700C000001BBA909581959F4F14C0DE
S11304A020E828BB6AE070E00E948D07D82FC92F8E
S11304B0CB010E94BD0081EB9CE00197F1F700C0E5
S11304C000001BBA8D2F9C2F28E028BB0E94BD0082
S11304D0E1EBFCE03197F1F700C000001BBA80911A
S11304E013019091140101969093140180931301C8
S11304F0DF91CF910895CF93DF93209100012223C0
S1130500F9F0209113013091140121353105C4F023
S11305108FEF82BB80911301909114018932910570
S11305202CF0109214011092130157C08091130102
S113053090911401019690931401809313014DC07E
S113054099237CF420E428BB21E02BBBE1EBFCE005
S11305503197F1F700C000001BBA909581959F4F29
S113056014C020E428BB64E670E00E948D07D82FF5
S1130570C92FCB010E94BD0081EB9CE00197F1F7EC
S113058000C000001BBA8D2F9C2F24E028BB6AE01A
S113059070E00E948D07EC01CB010E94BD00E1EBED
S11305A0FCE03197F1F700C000001BBACE010E94B5
S11305B0BD0080E288BB81EB9CE00197F1F700C0AD
S11305C000008FEF8BBB18BA809113019091140136
S11305D001969093140180931301DF91CF910895B4
S11305E0CF93DF93209100012223F9F0209113018E
S11305F03091140121353105C4F08FEF82BB809115
S1130600130190911401893291052CF01092140178
S11306101092130157C08091130190911401019617
S113062090931401809313014DC099237CF422E02C
S113063028BB21E02BBBE1EBFCE03197F1F700C0D4
S113064000001BBA909581959F4F14C022E028BBEF
S113065064E670E00E948D07D82FC92FCB010E9459
S1130660BD0081EB9CE00197F1F700C000001BBACC
S11306708D2F9C2F20E128BB6AE070E00E948D073B
S1130680EC01CB010E94BD00E1EBFCE03197F1F7F6
S113069000C000001BBACE010E94BD0081E088BBEF
S11306A081EB9CE00197F1F700C000008FEF8BBB5A
S11306B018BA80911301909114010196909314013A
S11306C080931301DF91CF9108950F931F93CF93DC
S11306D0DF9380910B0190910C0190931001809312
S11306E00F012091090130910A0130930E012093EA
S11306F00D012091070130910801309312012093DC
S113070011012091050130910601309318012093C5
S113071017012091030130910401309316012093B5
S1130720150199237CF487EF85BB82BB80910F016F
S113073090911001909581959F4F90931001809313
S11307400F0119C087EF85BB80910F0190911001B3
S1130750C8EED3E0BE010E948D07CB010E94750054
S113076080910F0190911001BE010E948D0790931A
S1130770100180930F01809111019091120199232E
S113078084F480E888BB81E08BBB80911101909157
S11307901201909581959F4F9093120180931101BE
S11307A019C080E888BB8091110190911201CAE0C0
S11307B0D0E0BE010E948D07CB010E94BD00809154
S11307C0110190911201BE010E948D0790931201B4
S11307D08093110181EB9CE00197F1F700C00000C8
S11307E01BBA0FEF02BB88E088BB80911101909186
S11307F012010E94BD0080910F0190911001C4E686
S1130800D0E0BE010E948D07CB010E9475008FE7E6
S113081085BB80910F0190911001BE010E948D074C
S11308209093100180930F01E1EBFCE03197F1F715
S113083000C0000002BB1BBACAE0D0E0BE010E94A7
S11308408D07CB010E9475008BEF85BB80910F0152
S113085090911001BE010E948D0790931001809326
S11308600F018091170190911801992384F480E479
S113087088BB81E08BBB8091170190911801909502
S113088081959F4F909318018093170119C080E4BC
S113089088BB8091170190911801C4E6D0E0BE0195
S11308A00E948D07CB010E94BD0080911701909199
S11308B01801BE010E948D079093180180931701BF
S11308C081EB9CE00197F1F700C000000FEF02BB41
S11308D01BBA80910F01909110010E9475008FEB5B
S11308E085BB84E088BB8091170190911801CAE010
S11308F0D0E0BE010E948D07CB010E94BD00809113
S1130900170190911801BE010E948D079093180160
S113091080931701E1EBFCE03197F1F700C0000090
S113092002BB1BBA0E94BD0080E288BB80910D010E
S113093090910E01992384F48DEF85BB87EF82BBE0
S113094080910D0190910E01909581959F4F909308
S11309500E0180930D0119C08DEF85BB80910D01AF
S113096090910E01C8EED3E0BE010E948D07CB0129
S11309700E94750080910D0190910E01BE010E94AC
S11309808D0790930E0180930D0181EB9CE00197FC
S1130990F1F700C000001BBA8FEF82BB80910D01FC
S11309A090910E01C4E6D0E0BE010E948D07CB01F8
S11309B00E9475008FED85BB80910D0190910E0111
S11309C0BE010E948D0790930E0180930D018091CA
S11309D0150190911601992384F482E088BB81E08B
S11309E08BBB8091150190911601909581959F4F35
S11309F0909316018093150119C082E088BB809101
S1130A00150190911601C4E6D0E0BE010E948D0745
S1130A10CB010E94BD008091150190911601BE0189
S1130A200E948D079093160180931501E1EBFCE081
S1130A303197F1F700C00000CFEFC2BB1BBA809121
S1130A400D0190910E010AE010E0B8010E948D079B
S1130A50CB010E9475008EEF85BB80910D019091B2
S1130A600E01B8010E948D0790930E0180930D0131
S1130A7080E188BB8091150190911601B8010E9414
S1130A808D07CB010E94BD00809115019091160144
S1130A90B8010E948D07909316018093150181EB94
S1130AA09CE00197F1F700C00000C2BB1BBA809123
S1130AB00D0190910E010E9475008FEE85BB80910F
S1130AC01501909116010E94BD0081E088BBE1EB05
S1130AD0FCE03197F1F700C00000C2BBC5BBCBBB43
S1130AE018BADF91CF911F910F910895F8941FBC0C
S1130AF01EBC10928B00EAE8F0E0108288E79EE1C9
S1130B009BBD8ABD84E690E0909387008093860025
S1130B108EB588608EBD8081886080838EB581604B
S1130B208EBD8EB584608EBD80818160808380811E
S1130B308460808387B7806187BFEDE7F0E08081C0
S1130B4080618083789408951F920F920FB60F925C
S1130B500BB60F9211242F933F934F935F936F9390
S1130B607F938F939F93AF93BF93EF93FF93809162
S1130B7001019091020190930801809307018091F3
S1130B80010190910201909306018093050180E197
S1130B900E946E0022E08130920734F080E10E94CE
S1130BA06E000E94F00204C08FE090E00E941A02DE
S1130BB0FF91EF91BF91AF919F918F917F916F9131
S1130BC05F914F913F912F910F900BBE0F900FBEED
S1130BD00F901F9018951F920F920FB60F92112429
S1130BE08F939F93809101019091020101969093BC
S1130BF00201809301019F918F910F900FBE0F907E
S1130C001F9018950E9468008FEF87BB8ABB18BAA3
S1130C101BBAC8EED3E080E10E946E00BE010E94C0
S1130C208D070E94F002F7CF80E10E946E009C01C4
S1130C30B901882777FD8095982F0E9401072DEC34
S1130C403CEC4CE45EE30E9432062CE53AEA42EDC9
S1130C505BE30E949706462F572F682F792FCB010D
S1130C60BA0108955058BB27AA270ED01CC10DD134
S1130C7030F012D120F031F49F3F11F41EF402C180
S1130C800EF4E095E7FBF8C0E92F1ED180F3BA1704
S1130C90620773078407950718F071F49EF536C14F
S1130CA00EF4E0950B2EBA2FA02D0B01B901900183
S1130CB00C01CA01A0011124FF27591B99F0593FC7
S1130CC050F4503E68F11A16F040A22F232F342F0F
S1130CD04427585FF3CF469537952795A795F0405D
S1130CE05395C9F77EF41F16BA0B620B730B840B72
S1130CF0BAF09150A1F0FF0FBB1F661F771F881F2A
S1130D00C2F70EC0BA0F621F731F841F48F4879581
S1130D1077956795B795F7959E3F08F0B3CF939570
S1130D20880F08F09927EE0F9795879508950CD0B2
S1130D30BAC0B2D040F0A9D030F021F45F3F19F02E
S1130D409BC05111E4C09EC0BFD098F39923C9F34E
S1130D505523B1F3951B550BBB27AA2762177307BD
S1130D60840738F09F5F5F4F220F331F441FAA1F71
S1130D70A9F333D00E2E3AF0E0E830D09150504031
S1130D80E695001CCAF729D0FE2F27D0660F771FDF
S1130D90881FBB1F261737074807AB07B0E809F0C1
S1130DA0BB0B802DBF01FF2793585F4F2AF09E3F56
S1130DB0510568F061C0ABC05F3FECF3983EDCF3D3
S1130DC0869577956795B795F7959F5FC9F7880FCF
S1130DD0911D9695879597F90895E1E0660F771F21
S1130DE0881FBB1F621773078407BA0720F0621BB2
S1130DF0730B840BBA0BEE1F88F7E0950895E89403
S1130E0009C097FB3EF490958095709561957F4F4E
S1130E108F4F9F4F9923A9F0F92F96E9BB279395FC
S1130E20F695879577956795B795F111F8CFFAF40C
S1130E30BB0F11F460FF1BC06F5F7F4F8F4F9F4F3D
S1130E4016C0882311F096E911C0772321F09EE89B
S1130E50872F762F05C0662371F096E8862F70E001
S1130E6060E02AF09A95660F771F881FDAF7880FDB
S1130E709695879597F9089597F99F6780E870E0AC
S1130E8060E008959FEF80EC089500240A941616FC
S1130E90170618060906089500240A941216130664
S1130EA0140605060895092E0394000C11F48823F2
S1130EB052F0BB0F40F4BF2B11F460FF04C06F5F0E
S1130EC07F4F8F4F9F4F089557FD9058440F551FE4
S1130ED059F05F3F71F04795880F97FB991F61F0B8
S1130EE09F3F79F087950895121613061406551F2F
S1130EF0F2CF4695F1DF08C0161617061806991F9B
S1130F00F1CF86957105610508940895E894BB278F
S1130F1066277727CB0197F9089597FB092E0726B3
S1130F200AD077FD04D00CD006D000201AF47095B6
S1130F3061957F4F0895F6F7909581959F4F089599
S1130F40AA1BBB1B51E107C0AA1FBB1FA617B707EB
S1130F5010F0A61BB70B881F991F5A95A9F7809507
S10F0F609095BC01CD010895F894FFCFDA
S9030000FC
