S01900004D6F6E69746F72696E67426C6F636B56322E7372656372
S11300000C9446000C9466000C9466000C946600F4
S11300100C9466000C9466000C9466000C946600C4
S11300200C9466000C9466000C9466000C946600B4
S11300300C9479060C9466000C9466000C9466008B
S11300400C9466000C9466000C9466000C94660094
S11300500C9466000C9466000C9466000C94660084
S11300600C9466000C9466000C942F060C946600A5
S11300700C9466000C9466000C9466000C94660064
S11300800C9466000C9466000C94660011241FBE48
S1130090CFEFD0E1DEBFCDBF11E0A0E0B1E0E6E8F4
S11300A0F2E100E00BBF02C007900D92A030B1074F
S11300B0D9F71BBE11E0A0E0B1E001C01D92A73E3C
S11300C0B107E1F70E94AF060C9441090C940000BB
S11300D085E886B9089517B887B1806C87B980E838
S11300E086B980E486B983E086B980E286B932991C
S11300F0FECF329A089587B9369A3699FECF64B105
S113010075B180E090E00E9405082CEB34E743E9E8
S11301105BE30E94B70820E030E048EC52E40E9420
S1130120B7080E94D407862F972F089524E130E062
S113013040E050E087B9369A3699FECF64B175B184
S1130140460F571F21503040A9F7CA0164E170E0FF
S11301500E941A09862F972F089587B983EE86B9CE
S11301603299FECF329A84B195B1392F20E090E0D4
S1130170822B932B089581E00E9496009C01B90183
S1130180882777FD8095982F0E9407082CEB34E789
S113019043E95BE30E94B70825E83BEE41E550E400
S11301A00E94B70820E030E040E251E40E94B70822
S11301B00E94D407862F972F089583E00E9496000B
S11301C09C01B901882777FD8095982F0E94070824
S11301D02CEB34E743E95BE30E94B70820E030E509
S11301E043EC56E40E94B7080E94D407862F972F49
S11301F0089508958430910581F18530910584F442
S11302008130910509F1823091051CF40097B9F110
S1130210089582309105D9F08330910591F51AC083
S11302208730910519F1883091053CF485309105AA
S1130230B9F08630910529F516C088309105C9F0CA
S113024089309105F1F418C08FEA82BB089585E4E2
S113025082BB089587E082BB089586EA82BB089535
S113026086E182BB089584E182BB08958FE282BB5C
S1130270089584E082BB089586E082BB08958CE0F3
S113028082BB08958430910581F18530910584F411
S11302908130910509F1823091051CF40097B9F180
S11302A0089582309105D9F08330910591F51AC0F3
S11302B08730910519F1883091053CF4853091051A
S11302C0B9F08630910529F516C088309105C9F03A
S11302D089309105F1F418C082E48BBB08958DE652
S11302E08BBB08958BE68BBB089583EC8BBB089581
S11302F08BEA8BBB08958FEA8BBB08958AE48BBB92
S113030008958FEE8BBB08958BEE8BBB08958EEE14
S11303108BBB08950F931F93CF9320910001222349
S1130320F9F0209117013091180121353105C4F0FD
S11303308FEF82BB8091170190911801893291054A
S11303402CF010921801109217016AC080911701C5
S1130350909118010196909318018093170160C041
S113036099237CF427EF25BB22BBE1EBFCE031971A
S1130370F1F700C000002FEF22BB909581959F4FAD
S113038016C027EF25BB68EE73E00E941A09082FF8
S1130390C92FCB010E94FA0081EB9CE00197F1F791
S11303A000C000008FEF82BB85BB802F9C2F64E6CA
S11303B070E00E941A098C01CB010E94FA008FE7B9
S11303C085BBE1EBFCE03197F1F700C00000CFEF13
S11303D0C2BBC8016AE070E00E941A098C01CB011B
S11303E00E94FA008BEF85BB81EB9CE00197F1F74B
S11303F000C00000C2BBC8010E94FA008FEB85BB9D
S1130400E1EBFCE03197F1F700C00000C2BB809142
S11304101701909118010196909318018093170188
S1130420CF911F910F9108950F931F93CF93209114
S113043000012223F9F02091170130911801213590
S11304403105C4F08FEF82BB8091170190911801A0
S1130450893291052CF010921801109217016BC08B
S1130460809117019091180101969093180180933F
S1130470170161C0992384F42DEF25BB27EF22BB1C
S1130480E1EBFCE03197F1F700C000002FEF22BB55
S1130490909581959F4F15C02DEF25BB68EE73E0B5
S11304A00E941A09082FC92FCB010E94FA0081EB80
S11304B09CE00197F1F700C000008FEF82BB802F12
S11304C09C2F64E670E00E941A098C01CB010E9403
S11304D0FA008FED85BBE1EBFCE03197F1F700C04A
S11304E00000CFEFC2BBC8016AE070E00E941A09A5
S11304F08C01CB010E94FA008EEF85BB81EB9CE05E
S11305000197F1F700C00000C2BBC8010E94FA00C5
S11305108FEE85BBE1EBFCE03197F1F700C0000002
S1130520C2BBC5BB809117019091180101969093AD
S1130530180180931701CF911F910F910895CF93C4
S1130540DF93209100012223F9F0209117013091CB
S1130550180121353105C4F08FEF82BB809117015A
S113056090911801893291052CF010921801109283
S1130570170143C08091170190911801019690933F
S113058018018093170139C099237CF420E828BB13
S113059021E02BBBE1EBFCE03197F1F700C0000058
S11305A01BBA909581959F4F14C020E828BB6AE040
S11305B070E00E941A09D82FC92FCB010E94420172
S11305C081EB9CE00197F1F700C000001BBA8D2F6E
S11305D09C2F28E028BB0E944201E1EBFCE031970C
S11305E0F1F700C000001BBA809117019091180127
S11305F001969093180180931701DF91CF9108958C
S1130600CF93DF93209100012223F9F02091170169
S11306103091180121353105C4F08FEF82BB8091F0
S1130620170190911801893291052CF0109218014C
S11306301092170159C080911701909118010196E9
S113064090931801809317014FC0992384F420E4F8
S113065028BB21E02BBBDC9AE1EBFCE03197F1F7FE
S113066000C000001BBA909581959F4F15C020E4EF
S113067028BB64E670E00E941A09D82FC92FCB0169
S11306800E944201DC9A81EB9CE00197F1F700C0E3
S113069000001BBA8D2F9C2F24E028BB6AE070E079
S11306A00E941A09EC01CB010E944201E1EBFCE03B
S11306B03197F1F700C000001BBACE010E9442013D
S11306C080E288BB81EB9CE00197F1F700C0000059
S11306D08FEF8BBB18BA8091170190911801019686
S11306E09093180180931701DF91CF910895CF93D0
S11306F0DF93209100012223F9F02091170130911A
S1130700180121353105C4F08FEF82BB80911701A8
S113071090911801893291052CF0109218011092D1
S1130720170158C080911701909118010196909378
S11307301801809317014EC099237CF422E028BB52
S113074021E02BBBE1EBFCE03197F1F700C00000A6
S11307501BBA909581959F4F14C022E028BB64E694
S113076070E00E941A09D82FC92FCB010E944201C0
S113077081EB9CE00197F1F700C000001BBA8D2FBC
S11307809C2F20E128BB6AE070E00E941A09EC016A
S1130790CB010E944201DC9AE1EBFCE03197F1F7D6
S11307A000C000001BBACE010E94420181E088BB58
S11307B081EB9CE00197F1F700C000008FEF8BBB49
S11307C018BA80911701909118010196909318011D
S11307D080931701DF91CF9108950F931F93CF93C7
S11307E0DF9380910F0190911001909314018093F5
S11307F0130120910D0130910E01309312012093C9
S1130800110120910B0130910C01309316012093BA
S113081015012091090130910A0130931C012093A4
S11308201B01209107013091080130931A01209394
S1130830190199237CF487EF85BB82BB8091130156
S113084090911401909581959F4F909314018093FA
S1130850130119C087EF85BB809113019091140196
S1130860C8EED3E0BE010E941A09CB010E94FA002F
S11308708091130190911401BE010E941A09909372
S1130880140180931301809115019091160199230D
S113089084F480E888BB81E08BBB80911501909142
S11308A01601909581959F4F9093160180931501A1
S11308B019C080E888BB8091150190911601CAE0A7
S11308C0D0E0BE010E941A09CB010E94420180912E
S11308D0150190911601BE010E941A099093160108
S11308E08093150181EB9CE00197F1F700C00000B3
S11308F01BBA0FEF02BB88E088BB80911501909171
S113090016010E9442018091130190911401C4E6E2
S1130910D0E0BE010E941A09CB010E94FA008FE7C1
S113092085BB8091130190911401BE010E941A09A4
S11309309093140180931301E1EBFCE03197F1F7FC
S113094000C0000002BB1BBACAE0D0E0BE010E9496
S11309501A09CB010E94FA008BEF85BB8091130129
S113096090911401BE010E941A099093140180937E
S1130970130180911B0190911C0199238CF480E454
S113098088BB81E08BBBDC9A80911B0190911C0198
S1130990909581959F4F90931C0180931B011AC0E1
S11309A080E488BB80911B0190911C01C4E6D0E0D7
S11309B0BE010E941A09CB010E944201DC9A809177
S11309C01B0190911C01BE010E941A0990931C0105
S11309D080931B0181EB9CE00197F1F700C00000BC
S11309E00FEF02BB1BBA80911301909114010E9476
S11309F0FA008FEB85BB84E088BB80911B0190914A
S1130A001C01CAE0D0E0BE010E941A09CB010E9479
S1130A10420180911B0190911C01BE010E941A09A0
S1130A2090931C0180931B01E1EBFCE03197F1F7FB
S1130A3000C0000002BB1BBA0E94420180E288BBD6
S1130A408091110190911201992384F48DEF85BB5B
S1130A5087EF82BB8091110190911201909581954D
S1130A609F4F909312018093110119C08DEF85BBA4
S1130A708091110190911201C8EED3E0BE010E9451
S1130A801A09CB010E94FA00809111019091120180
S1130A90BE010E941A09909312018093110181EB07
S1130AA09CE00197F1F700C000001BBA8FEF82BBF6
S1130AB08091110190911201C4E6D0E0BE010E9420
S1130AC01A09CB010E94FA008FED85BB80911101B8
S1130AD090911201BE010E941A0990931201809311
S1130AE011018091190190911A01992384F482E0F3
S1130AF088BB81E08BBB8091190190911A0190957C
S1130B0081959F4F90931A018093190119C082E037
S1130B1088BB8091190190911A01C4E6D0E0BE010E
S1130B200E941A09CB010E944201809119019091FF
S1130B301A01BE010E941A0990931A0180931901A7
S1130B40E1EBFCE03197F1F700C00000CFEFC2BB4E
S1130B501BBA80911101909112010AE010E0B801D2
S1130B600E941A09CB010E94FA008EEF85BB809186
S1130B70110190911201B8010E941A099093120177
S1130B808093110180E188BB8091190190911A0131
S1130B90B8010E941A09CB010E944201DC9A80919B
S1130BA0190190911A01B8010E941A0990931A012F
S1130BB08093190181EB9CE00197F1F700C00000DC
S1130BC0C2BB1BBA80911101909112010E94FA00DC
S1130BD08FEE85BB8091190190911A010E94420108
S1130BE081E088BBE1EBFCE03197F1F700C0000045
S1130BF0C2BBC5BBCBBB18BADF91CF911F910F917C
S1130C000895F8941FBC1EBC10928B00EAE8F0E033
S1130C1010828CE093E09BBD8ABD84E690E09093C3
S1130C208700809386008EB588608EBD8081886041
S1130C3080838EB581608EBD8EB584608EBD8081CB
S1130C408160808380818460808387B7806187BF6F
S1130C50EDE7F0E0808180618083789408951F92AD
S1130C600F920FB60F920BB60F9211242F933F934E
S1130C704F935F936F937F938F939F93AF93BF93A0
S1130C80EF93FF930E94ED03FF91EF91BF91AF911A
S1130C909F918F917F916F915F914F913F912F9190
S1130CA00F900BBE0F900FBE0F901F90189580E011
S1130CB090E040E050E06FE171E0FC01EE0FFF1FB7
S1130CC0E60FF71F20813181420F531F01968436AE
S1130CD0910599F79A01220F331F220F331FC9017F
S1130CE0880F991F880F991F880F991F820F931FD0
S1130CF008951F920F920FB60F920BB60F92112404
S1130D002F933F934F935F936F937F938F939F930F
S1130D10AF93BF93EF93FF931092100110920F01C2
S1130D200E94BF0690930A01809309010E94BB00B0
S1130D309093080180930701FF91EF91BF91AF91C8
S1130D409F918F917F916F915F914F913F912F91DF
S1130D500F900BBE0F900FBE0F901F9018950E941E
S1130D6068000E9401068FEF81BB84BB12B883B96F
S1130D7087BB8ABB18BA1BBA82BB85BBFFCF0F9354
S1130D801F93CF93DF9380E00E9496009C01B901EA
S1130D90882777FD8095982F0E9407082CEB34E76D
S1130DA043E95BE30E94B7082FE632E143E05CE3EA
S1130DB00E946C072AE939E949EA51E40E940307D1
S1130DC0062F172FD82FC92F862F912FAD2FBC2F69
S1130DD0BC01CD0120E030E0A9010E94680788230E
S1130DE05CF0802F912FAD2FBC2FBC01CD010E9450
S1130DF0D407DC01CB0102C080E090E0DF91CF9109
S1130E001F910F9108955058BB27AA270ED075C182
S1130E1066D130F06BD120F031F49F3F11F41EF411
S1130E205BC10EF4E095E7FB51C1E92F77D180F364
S1130E30BA17620773078407950718F071F49EF5D3
S1130E408FC10EF4E0950B2EBA2FA02D0B01B90122
S1130E5090010C01CA01A0011124FF27591B99F02C
S1130E60593F50F4503E68F11A16F040A22F232F38
S1130E70342F4427585FF3CF469537952795A79588
S1130E80F0405395C9F77EF41F16BA0B620B730B2F
S1130E90840BBAF09150A1F0FF0FBB1F661F771FA0
S1130EA0881FC2F70EC0BA0F621F731F841F48F455
S1130EB0879577956795B795F7959E3F08F0B3CFDB
S1130EC09395880F08F09927EE0F979587950895C5
S1130ED0D9D008F481E008950CD00FC107D140F0B7
S1130EE0FED030F021F45F3F19F0F0C0511139C148
S1130EF0F3C014D198F39923C9F35523B1F3951B87
S1130F00550BBB27AA2762177307840738F09F5F26
S1130F105F4F220F331F441FAA1FA9F333D00E2E95
S1130F203AF0E0E830D091505040E695001CCAF702
S1130F3029D0FE2F27D0660F771F881FBB1F2617C7
S1130F4037074807AB07B0E809F0BB0B802DBF019A
S1130F50FF2793585F4F2AF09E3F510568F0B6C0B3
S1130F6000C15F3FECF3983EDCF386957795679577
S1130F70B795F7959F5FC9F7880F911D969587954B
S1130F8097F90895E1E0660F771F881FBB1F62176A
S1130F9073078407BA0720F0621B730B840BBA0B28
S1130FA0EE1F88F7E095089504D06894B111D9C074
S1130FB00895BCD088F09F5790F0B92F9927B75166
S1130FC0A0F0D1F0660F771F881F991F1AF0BA9509
S1130FD0C9F712C0B13081F0C3D0B1E00895C0C0E8
S1130FE0672F782F8827B85F39F0B93FCCF38695FF
S1130FF077956795B395D9F73EF49095809570955C
S113100061957F4F8F4F9F4F0895E89409C097FBD8
S11310103EF490958095709561957F4F8F4F9F4FCB
S11310209923A9F0F92F96E9BB279395F69587950F
S113103077956795B795F111F8CFFAF4BB0F11F4D2
S113104060FF1BC06F5F7F4F8F4F9F4F16C0882379
S113105011F096E911C0772321F09EE8872F762FAF
S113106005C0662371F096E8862F70E060E02AF0F0
S11310709A95660F771F881FDAF7880F96958795DC
S113108097F90895990F0008550FAA0BE0E8FEEFB1
S113109016161706E807F907C0F012161306E40738
S11310A0F50798F0621B730B840B950B39F40A2631
S11310B061F0232B242B252B21F408950A2609F40F
S11310C0A140A6958FEF811D811D089597F99F6713
S11310D080E870E060E008959FEF80EC08950024BC
S11310E00A941616170618060906089500240A9489
S11310F012161306140605060895092E0394000C0F
S113110011F4882352F0BB0F40F4BF2B11F460FF9D
S113111004C06F5F7F4F8F4F9F4F089557FD9058C6
S1131120440F551F59F05F3F71F04795880F97FBA7
S1131130991F61F09F3F79F0879508951216130661
S11311401406551FF2CF4695F1DF08C01616170690
S11311501806991FF1CF86957105610508940895C5
S1131160E894BB2766277727CB0197F908950BD01E
S1131170C4CFB5DF28F0BADF18F0952309F0A6CF65
S1131180ABCF1124EECFCADFA0F3959FD1F3950F17
S113119050E0551F629FF001729FBB27F00DB11DF7
S11311A0639FAA27F00DB11DAA1F649F6627B00D87
S11311B0A11D661F829F2227B00DA11D621F739F70
S11311C0B00DA11D621F839FA00D611D221F749F7E
S11311D03327A00D611D231F849F600D211D822FC5
S11311E0762F6A2F11249F5750408AF0E1F088230C
S11311F04AF0EE0FFF1FBB1F661F771F881F915019
S11312005040A9F79E3F510570F060CFAACF5F3FD1
S1131210ECF3983EDCF3869577956795B795F7954B
S1131220E7959F5FC1F7FE2B880F911D96958795D3
S113123097F9089597FB092E07260AD077FD04D065
S11312400CD006D000201AF4709561957F4F089554
S1131250F6F7909581959F4F0895AA1BBB1B51E10A
S113126007C0AA1FBB1FA617B70710F0A61BB70B12
S1131270881F991F5A95A9F780959095BC01CD01B7
S10912800895F894FFCF6D
S9030000FC
