:100000000C9446000C9466000C9466000C946600F8
:100010000C9466000C9466000C9466000C946600C8
:100020000C9466000C9466000C9466000C946600B8
:100030000C940C060C9466000C9466000C946600FC
:100040000C9466000C9466000C9466000C94660098
:100050000C9466000C9466000C9466000C94660088
:100060000C9466000C9466000C94DE050C946600FB
:100070000C9466000C9466000C9466000C94660068
:100080000C9466000C9466000C94660011241FBE4C
:10009000CFEFD0E1DEBFCDBF11E0A0E0B1E0E6EDF3
:1000A000F0E100E00BBF02C007900D92A030B10755
:1000B000D9F71BBE11E0A0E0B1E001C01D92A9314B
:1000C000B107E1F70E9423060C9469080C94000024
:1000D00085E886B9089517B887B1806C87B980E83C
:1000E00086B980E486B983E086B980E286B9329920
:1000F000FECF329A089587B9369A3699FECF64B109
:1001000075B180E090E00E9451072CEB34E743E9A1
:100110005BE30E94DF0720E030E048EC52E40E94FD
:10012000DF070E942007862F972F089587B9369AF8
:100130003699FECF84B195B1089587B983EE86B91B
:100140003299FECF329A84B195B1392F20E090E0F8
:10015000822B932B08958430910581F18530910590
:1001600084F48130910509F1823091051CF40097E7
:10017000B9F1089582309105D9F08330910591F558
:100180001AC08730910519F1883091053CF485300B
:100190009105B9F08630910529F516C08830910592
:1001A000C9F089309105F1F418C08FEA82BB089537
:1001B00085E482BB089587E082BB089586EA82BB0E
:1001C000089586E182BB089584E182BB08958FE2A1
:1001D00082BB089584E082BB089586E082BB0895C7
:1001E0008CE082BB08958430910581F185309105C2
:1001F00084F48130910509F1823091051CF4009757
:10020000B9F1089582309105D9F08330910591F5C7
:100210001AC08730910519F1883091053CF485307A
:100220009105B9F08630910529F516C08830910501
:10023000C9F089309105F1F418C082E48BBB0895B0
:100240008DE68BBB08958BE68BBB089583EC8BBB4F
:1002500008958BEA8BBB08958FEA8BBB08958AE4DF
:100260008BBB08958FEE8BBB08958BEE8BBB0895EF
:100270008EEE8BBB08950F931F93CF9320910001B7
:100280002223F9F020911301309114012135310519
:10029000C4F08FEF82BB80911301909114018932D9
:1002A00091052CF010921401109213016AC08091F4
:1002B00013019091140101969093140180931301FE
:1002C00060C099237CF427EF25BB22BBE1EBFCE067
:1002D0003197F1F700C000002FEF22BB9095819578
:1002E0009F4F16C027EF25BB68EE73E00E944208BF
:1002F000082FC92FCB010E94AB0081EB9CE0019736
:10030000F1F700C000008FEF82BB85BB802F9C2FD0
:1003100064E670E00E9442088C01CB010E94AB00B1
:100320008FE785BBE1EBFCE03197F1F700C00000FF
:10033000CFEFC2BBC8016AE070E00E9442088C01A6
:10034000CB010E94AB008BEF85BB81EB9CE001975A
:10035000F1F700C00000C2BBC8010E94AB008FEBE8
:1003600085BBE1EBFCE03197F1F700C00000C2BBB8
:100370008091130190911401019690931401809340
:100380001301CF911F910F9108950F931F93CF9356
:10039000209100012223F9F02091130130911401E2
:1003A00021353105C4F08FEF82BB8091130190910C
:1003B0001401893291052CF010921401109213014E
:1003C0006BC08091130190911401019690931401D8
:1003D0008093130161C0992384F42DEF25BB27EF8F
:1003E00022BBE1EBFCE03197F1F700C000002FEFFA
:1003F00022BB909581959F4F15C02DEF25BB68EED0
:1004000073E00E944208082FC92FCB010E94AB0065
:1004100081EB9CE00197F1F700C000008FEF82BBF9
:10042000802F9C2F64E670E00E9442088C01CB0173
:100430000E94AB008FED85BBE1EBFCE03197F1F75B
:1004400000C00000CFEFC2BBC8016AE070E00E94AC
:1004500042088C01CB010E94AB008EEF85BB81EB83
:100460009CE00197F1F700C00000C2BBC8010E94E8
:10047000AB008FEE85BBE1EBFCE03197F1F700C0FC
:100480000000C2BBC5BB809113019091140101967D
:100490009093140180931301CF911F910F910895B0
:1004A000CF93DF93209100012223F9F020911301D3
:1004B0003091140121353105C4F08FEF82BB80915A
:1004C000130190911401893291052CF010921401BE
:1004D0001092130143C08091130190911401019671
:1004E000909314018093130139C099237CF420E880
:1004F00028BB21E02BBBE1EBFCE03197F1F700C01A
:1005000000001BBA909581959F4F14C020E828BB2E
:100510006AE070E00E944208D82FC92FCB010E94E8
:10052000F30081EB9CE00197F1F700C000001BBADB
:100530008D2F9C2F28E028BB0E94F300E1EBFCE00C
:100540003197F1F700C000001BBA80911301909120
:10055000140101969093140180931301DF91CF91C0
:100560000895CF93DF93209100012223F9F0209189
:1005700013013091140121353105C4F08FEF82BB96
:100580008091130190911401893291052CF0109201
:1005900014011092130159C080911301909114011C
:1005A000019690931401809313014FC0992384F412
:1005B00020E428BB21E02BBBDC9AE1EBFCE0319787
:1005C000F1F700C000001BBA909581959F4F15C0B0
:1005D00020E428BB64E670E00E944208D82FC92FAF
:1005E000CB010E94F300DC9A81EB9CE00197F1F7CC
:1005F00000C000001BBA8D2F9C2F24E028BB6AE0AE
:1006000070E00E944208EC01CB010E94F300E1EB94
:10061000FCE03197F1F700C000001BBACE010E9448
:10062000F30080E288BB81EB9CE00197F1F700C00A
:1006300000008FEF8BBB18BA8091130190911401C9
:1006400001969093140180931301DF91CF91089547
:10065000CF93DF93209100012223F9F02091130121
:100660003091140121353105C4F08FEF82BB8091A8
:10067000130190911401893291052CF0109214010C
:100680001092130157C080911301909114010196AB
:1006900090931401809313014DC099237CF422E0C0
:1006A00028BB21E02BBBE1EBFCE03197F1F700C068
:1006B00000001BBA909581959F4F14C022E028BB83
:1006C00064E670E00E944208D82FC92FCB010E9437
:1006D000F30081EB9CE00197F1F700C000001BBA2A
:1006E0008D2F9C2F20E128BB6AE070E00E94420819
:1006F000EC01CB010E94F300E1EBFCE03197F1F754
:1007000000C000001BBACE010E94F30081E088BB4C
:1007100081EB9CE00197F1F700C000008FEF8BBBED
:1007200018BA8091130190911401019690931401CD
:1007300080931301DF91CF9108950F931F93CF936F
:10074000DF9380910B0190910C01909310018093A5
:100750000F012091090130910A0130930E0120937D
:100760000D0120910701309108013093120120936F
:100770001101209105013091060130931801209359
:100780001701209103013091040130931601209349
:10079000150199237CF487EF85BB82BB80910F0103
:1007A00090911001909581959F4F909310018093A7
:1007B0000F0119C087EF85BB80910F019091100147
:1007C000C8EED3E0BE010E944208CB010E94AB00FC
:1007D00080910F0190911001BE010E9442089093F8
:1007E000100180930F0180911101909112019923C2
:1007F00084F480E888BB81E08BBB809111019091EB
:100800001201909581959F4F909312018093110151
:1008100019C080E888BB8091110190911201CAE053
:10082000D0E0BE010E944208CB010E94F3008091FB
:10083000110190911201BE010E9442089093120191
:100840008093110181EB9CE00197F1F700C000005B
:100850001BBA0FEF02BB88E088BB80911101909119
:1008600012010E94F30080910F0190911001C4E6E3
:10087000D0E0BE010E944208CB010E94AB008FE78E
:1008800085BB80910F0190911001BE010E9442082A
:100890009093100180930F01E1EBFCE03197F1F7A9
:1008A00000C0000002BB1BBACAE0D0E0BE010E943B
:1008B0004208CB010E94AB008BEF85BB80910F01FA
:1008C00090911001BE010E94420890931001809304
:1008D0000F01809117019091180199238CF480E405
:1008E00088BB81E08BBBDC9A809117019091180145
:1008F000909581959F4F90931801809317011AC08E
:1009000080E488BB8091170190911801C4E6D0E083
:10091000BE010E944208CB010E94F300DC9A809144
:10092000170190911801BE010E944208909318018E
:100930008093170181EB9CE00197F1F700C0000064
:100940000FEF02BB1BBA80910F01909110010E9422
:10095000AB008FEB85BB84E088BB80911701909141
:100960001801CAE0D0E0BE010E944208CB010E94FB
:10097000F3008091170190911801BE010E94420876
:100980009093180180931701E1EBFCE03197F1F7A8
:1009900000C0000002BB1BBA0E94F30080E288BBCB
:1009A00080910D0190910E01992384F48DEF85BB08
:1009B00087EF82BB80910D0190910E0190958195FA
:1009C0009F4F90930E0180930D0119C08DEF85BB51
:1009D00080910D0190910E01C8EED3E0BE010E94FE
:1009E0004208CB010E94AB0080910D0190910E0155
:1009F000BE010E94420890930E0180930D0181EB8D
:100A00009CE00197F1F700C000001BBA8FEF82BB9A
:100A100080910D0190910E01C4E6D0E0BE010E94CC
:100A20004208CB010E94AB008FED85BB80910D0188
:100A300090910E01BE010E94420890930E01809396
:100A40000D018091150190911601992384F482E0A3
:100A500088BB81E08BBB8091150190911601909528
:100A600081959F4F909316018093150119C082E0E4
:100A700088BB8091150190911601C4E6D0E0BE01BB
:100A80000E944208CB010E94F300809115019091D1
:100A90001601BE010E944208909316018093150131
:100AA000E1EBFCE03197F1F700C00000CFEFC2BBF3
:100AB0001BBA80910D0190910E010AE010E0B8017F
:100AC0000E944208CB010E94AB008EEF85BB809153
:100AD0000D0190910E01B8010E94420890930E0101
:100AE00080930D0180E188BB8091150190911601E2
:100AF000B8010E944208CB010E94F30080911501C9
:100B000090911601B8010E944208909316018093BB
:100B1000150181EB9CE00197F1F700C00000C2BB1A
:100B20001BBA80910D0190910E010E94AB008FEED7
:100B300085BB80911501909116010E94F30081E020
:100B400088BBE1EBFCE03197F1F700C00000C2BBCD
:100B5000C5BBCBBB18BADF91CF911F910F91089500
:100B6000F8941FBC1EBC10928B00EAE8F0E01082E3
:100B700088E79EE19BBD8ABD84E690E09093870064
:100B8000809386008EB588608EBD8081886080836A
:100B90008EB581608EBD8EB584608EBD8081816092
:100BA000808380818460808387B7806187BFEDE721
:100BB000F0E0808180618083789408951F920F9285
:100BC0000FB60F920BB60F9211242F933F934F93B2
:100BD0005F936F937F938F939F93AF93BF93EF93A5
:100BE000FF930E94310690930601809305010E94B5
:100BF0009D03FF91EF91BF91AF919F918F917F9155
:100C00006F915F914F913F912F910F900BBE0F907D
:100C10000FBE0F901F9018951F920F920FB60F9254
:100C200011248F939F93809101019091020101966D
:100C300090930201809301019F918F910F900FBEBD
:100C40000F901F9018950E9468000E94B0058FEFCA
:100C500081BB84BB87BB8ABB18BA1BBA82BB85BB6E
:100C6000FFCF80E00E9496009C01B901882777FDA4
:100C70008095982F0E9453072CEB34E743E95BE300
:100C80000E94DF072FE632E143E05CE30E94B806F2
:100C90002AE939E941EB51E40E9453060E942007FA
:100CA000862F972F08955058BB27AA270ED04DC1E5
:100CB0003ED130F043D120F031F49F3F11F41EF4C7
:100CC00033C10EF4E095E7FB29C1E92F4FD180F342
:100CD000BA17620773078407950718F071F49EF539
:100CE00067C10EF4E0950B2EBA2FA02D0B01B901B0
:100CF00090010C01CA01A0011124FF27591B99F092
:100D0000593F50F4503E68F11A16F040A22F232F9D
:100D1000342F4427585FF3CF469537952795A795ED
:100D2000F0405395C9F77EF41F16BA0B620B730B94
:100D3000840BBAF09150A1F0FF0FBB1F661F771F05
:100D4000881FC2F70EC0BA0F621F731F841F48F4BA
:100D5000879577956795B795F7959E3F08F0B3CF40
:100D60009395880F08F09927EE0F9795879508952A
:100D70000CD0EBC0E3D040F0DAD030F021F45F3F8C
:100D800019F0CCC0511115C1CFC0F0D098F3992300
:100D9000C9F35523B1F3951B550BBB27AA2762173F
:100DA0007307840738F09F5F5F4F220F331F441F84
:100DB000AA1FA9F333D00E2E3AF0E0E830D09150BC
:100DC0005040E695001CCAF729D0FE2F27D0660FA9
:100DD000771F881FBB1F261737074807AB07B0E8E8
:100DE00009F0BB0B802DBF01FF2793585F4F2AF0FE
:100DF0009E3F510568F092C0DCC05F3FECF3983E27
:100E0000DCF3869577956795B795F7959F5FC9F75A
:100E1000880F911D9695879597F90895E1E0660FE3
:100E2000771F881FBB1F621773078407BA0720F05C
:100E3000621B730B840BBA0BEE1F88F7E0950895C5
:100E400004D06894B111B5C0089598D088F09F5728
:100E500090F0B92F9927B751A0F0D1F0660F771F06
:100E6000881F991F1AF0BA95C9F712C0B13081F0E6
:100E70009FD0B1E008959CC0672F782F8827B85F76
:100E800039F0B93FCCF3869577956795B395D9F747
:100E90003EF490958095709561957F4F8F4F9F4F51
:100EA0000895E89409C097FB3EF49095809570955D
:100EB00061957F4F8F4F9F4F9923A9F0F92F96E9A6
:100EC000BB279395F695879577956795B795F1111B
:100ED000F8CFFAF4BB0F11F460FF1BC06F5F7F4FB8
:100EE0008F4F9F4F16C0882311F096E911C07723CA
:100EF00021F09EE8872F762F05C0662371F096E8D3
:100F0000862F70E060E02AF09A95660F771F881FA1
:100F1000DAF7880F9695879597F9089597F99F675F
:100F200080E870E060E008959FEF80EC0895002471
:100F30000A941616170618060906089500240A943E
:100F400012161306140605060895092E0394000CC4
:100F500011F4882352F0BB0F40F4BF2B11F460FF53
:100F600004C06F5F7F4F8F4F9F4F089557FD90587C
:100F7000440F551F59F05F3F71F04795880F97FB5D
:100F8000991F61F09F3F79F0879508951216130617
:100F90001406551FF2CF4695F1DF08C01616170646
:100FA0001806991FF1CF869571056105089408957B
:100FB000E894BB2766277727CB0197F908950BD0D4
:100FC000C4CFB5DF28F0BADF18F0952309F0A6CF1B
:100FD000ABCF1124EECFCADFA0F3959FD1F3950FCD
:100FE00050E0551F629FF001729FBB27F00DB11DAD
:100FF000639FAA27F00DB11DAA1F649F6627B00D3D
:10100000A11D661F829F2227B00DA11D621F739F25
:10101000B00DA11D621F839FA00D611D221F749F33
:101020003327A00D611D231F849F600D211D822F7A
:10103000762F6A2F11249F5750408AF0E1F08823C1
:101040004AF0EE0FFF1FBB1F661F771F881F9150CE
:101050005040A9F79E3F510570F060CFAACF5F3F87
:10106000ECF3983EDCF3869577956795B795F79501
:10107000E7959F5FC1F7FE2B880F911D9695879589
:1010800097F9089597FB092E07260AD077FD04D01B
:101090000CD006D000201AF4709561957F4F08950A
:1010A000F6F7909581959F4F0895AA1BBB1B51E1C0
:1010B00007C0AA1FBB1FA617B70710F0A61BB70BC8
:1010C000881F991F5A95A9F780959095BC01CD016D
:0610D0000895F894FFCF23
:00000001FF
