S0150000766E74636F6E74726F6C6C65722E7372656373
S113000045C0000058C0000056C0000054C00000A5
S113001052C0000050C000004EC000004CC00000A0
S11300204AC0000048C0000046C0000044C00000B0
S113003042C0000040C000003EC000003CC00000C0
S11300403AC0000038C0000036C0000034C00000D0
S113005032C0000030C000002EC000002CC00000E0
S11300602AC0000028C0000026C0000024C00000F0
S113007022C0000020C000001EC000001CC0000000
S11300801AC0000018C0000016C0000011241FBED2
S1130090CFEFD0E1DEBFCDBF11E0A0E0B1E0EEE1F3
S11300A0F3E000E00BBF02C007900D92A431B1074A
S11300B0D9F7D1D032C1A4CF8EE09AC00895AA9ABC
S11300C00000AA980895CF93C82F662311F0A89A28
S11300D001C0A898A998A39AA49AA59AA69AAE989A
S11300E0AD98AC98AB98CC230CF4AE9AC6FDAD9AFF
S11300F0C5FDAC9AC4FDAB9AE2DFAE98AD98AC985E
S1130100AB98C3FDAE9AC2FDAD9AC1FDAC9AC0FDD9
S1130110AB9AD5DFAB9AAC9AAD9AAE9ACF910895CB
S1130120882311F0A89A01C0A898A99AA398A49822
S1130130A598A698AA9A00009B9902C080E001C0E5
S113014080E19C9980629D9980649E998068AA98B8
S11301500000AA9A00009B9981609C9982609D99F5
S113016084609E998860AA98089580E0D9DF8823E6
S1130170E4F300C000C080E0D3CF0895CF93C82F2C
S1130180F4DF60E08C2F9FDFCF91089581E0F6CFFC
S1130190089582E0F3CF0895CF93C82FE6DFCA30E5
S11301A099F4843148F090EC980F943138F08451EC
S11301B08C3230F484E505C080E403C084E101C0DE
S11301C080E08058DBDF03C061E08C2F7CDFCF91BF
S11301D00895CF93DF93EC012196FC01808188235D
S11301E021F0DADF89918111FCCFDF91CF9108955D
S11301F0CF93C82FA09AA19AA29AA39AA49AA59A37
S1130200A69A8FE99FE00197F1F700C00000AC9A2D
S1130210AB9A55DF81EE94E00197F1F700C000003E
S11302204EDF95E19A95F1F7000049DF85E18A9563
S1130230F1F70000AB9843DF95E19A95F1F70000E0
S113024088E29CDF88E09ADFA1DF86E097DF8C2FCD
S113025095DFCF910895CF93DF93CDB7DEB72A977B
S11302600FB6F894DEBF0FBECDBF26DF00E010E06E
S11302708DDF8FDF80E091E0ACDF4AE050E0BE012B
S11302806F5F7F4FC8010CD0CE010196A2DF0F5FD4
S11302901F4F83ED90E30197F1F700C00000E8CF12
S11302A04532510518F4423008F004C0FB011082B5
S11302B0CB010895BB274A3031F4992322F4BDE2DF
S11302C0909581959F4F01C0BB27FB015527AA2715
S11302D0880F991FAA1FA41710F0A41B83955051CF
S11302E0B9F7A05DAA3308F0A95DA193009779F747
S11302F0B111B1931192CB0100C0DC01FC01672F55
S113030071917723E1F7329704C07C916D937083E8
S11103106291AE17BF07C8F30895F894FFCFAB
S113031E44756F6B69742044EB4465692076696596
S107032E6EE0000079
S9030000FC
